:020000040800F2
:1000000000500020E55C00086132000867320008FB
:100010006D320008733200087932000800000000D9
:100020000000000000000000000000007F32000817
:100030008B3200080000000097320008A33200084D
:100040002D5D00082D5D00082D5D00082D5D000868
:100050002D5D00082D5D00082D5D00082D5D000858
:100060002D5D00082D5D00082D5D00082D5D000848
:100070002D5D0008B1320008C53200082D5D000872
:100080002D5D00082D5D00082D5D00082D5D000828
:100090002D5D00082D5D00082D5D00082D5D000818
:1000A0002D5D00082D5D00082D5D00082D5D000808
:1000B0002D5D0008A12700082D5D00082D5D0008BA
:1000C0002D5D00082D5D00082D5D00082D5D0008E8
:1000D000D13200082D5D00082D5D00082D5D00085F
:1000E000DD3200082D5D00082D5D000800000000D5
:1000F0000000000000000000000000000000000000
:0C01000000000000000000005FF808F1A3
:10010C00034613F8012B002AFBD1181A013870474B
:10011C000348044B834202D0034B03B1184770478A
:10012C00C8000020C8000020000000000548064B55
:10013C001B1AD90F01EBA301491002D0034B03B1D9
:10014C0018477047C8000020C800002000000000BD
:10015C0010B5064C237843B9FFF7DAFF044B13B103
:10016C000448AFF300800123237010BDC8000020A9
:10017C0000000000E866000808B5054B1BB10549F6
:10018C000548AFF30080BDE80840FFF7CFBF00BFC4
:10019C0000000000CC000020E866000880B58EB09E
:1001AC0008AF264B1B68264A12681146184601F008
:1001BC000DF90023079319230693042305930123B8
:1001CC00049303230393032302930123019300233A
:1001DC000093002300220221002000F0A2FF002344
:1001EC007B6112E0174A7B6913441B78FB74FB7C20
:1001FC00002B01D0F97C00E020213A1D7B691344CF
:10020C000A461A707B6901337B617B690D2BE9DD32
:10021C000023BB743B1D184600F090F83B1D18469C
:10022C0000F0DCF83B1D184600F00EF83B1D18469C
:10023C0001F0B0F800BF1837BD4680BD00000020AB
:10024C00E4000020DC03002090B587B000AF78609C
:10025C0000233B613F21786805F08EFD0346002B9F
:10026C0005D03049786805F0D7FD01233B613B6927
:10027C00002B52D12C49786805F08BFD0346002BDE
:10028C0013D100237B610DE07B697A6813441B78E2
:10029C00532B04D17B697A68134435221A707B691D
:1002AC0001337B617B69082BEEDD2049786805F012
:1002BC0070FD0346002B0CD07B681D4A1C46134670
:1002CC0007CB20606160A2601A889B78A281A3731F
:1002DC0012E01549786805F05CFD0346002B0BD045
:1002EC007B68144A1C46134607CB20606160A260F1
:1002FC001A889B78A281A3730F49786805F049FD91
:10030C00F860FB68002B03D0FB68033353221A7090
:10031C007968044805F080FD00BF00BF1C37BD465E
:10032C0090BD00BF10000020006700080C6700089B
:10033C001C6700082C6700083C67000880B485B077
:10034C0000AF78600023FB603FE0234AFB6852F863
:10035C002330BB607B6809331A78BB681B789A42E0
:10036C0030D17B680A331A78BB6801331B789A4208
:10037C0028D17B680B331A78BB6802331B789A42FE
:10038C0020D17B680C331A78BB6803331B789A42F4
:10039C0018D17B680D337A68127B1A707B680C332A
:1003AC007A68D27A1A707B680B337A68927A1A70F0
:1003BC007B680A337A68527A1A707B680933202278
:1003CC001A7005E0FB680133FB60FB68122BBCDD87
:1003DC001437BD4680BC70472000002080B485B027
:1003EC0000AF78600023FB6081E00023BB6078E005
:1003FC00FB687A68134419784348BA6813469B0023
:10040C0013445B0003441B78994267D1FB680133AA
:10041C007A68134419783C48BA6813469B00134415
:10042C005B00034401331B78994257D1FB680233BC
:10043C007A68134419783448BA6813469B001344FD
:10044C005B00034402331B78994247D1FB680333AA
:10045C007A68134419782C48BA6813469B001344E5
:10046C005B00034403331B78994237D1FB687A68ED
:10047C00D1182548BA6813469B0013445B0003440B
:10048C0005331B780B70FB6801337A68D1181E4852
:10049C00BA6813469B0013445B00034406331B7875
:1004AC000B70FB6802337A68D1181748BA68134688
:1004BC009B0013445B00034407331B780B70FB68F1
:1004CC0003337A68D1181048BA6813469B0013445A
:1004DC005B00034408331B780B7010E0BB680133DE
:1004EC00BB60BB680F2B83DDFB680133FB60FB68D3
:1004FC0003337A6813441B78002B7FF476AF1437E0
:10050C00BD4680BC704700BFE468000880B58AB067
:10051C0008AF1A4B1B681A4A12681146184600F0AD
:10052C0055FF40F28E3307939623069304230593CD
:10053C0001230493012303930123029301230193C9
:10054C0000230093002300220221002000F0E9FD8B
:10055C000C4B1B78DBB2012B08D104233B7100231D
:10056C007B713B1D184600F015FF02E0064800F0B9
:10057C0011FF00BF0837BD4680BD00BF080000203A
:10058C00E40000200C04002044670008B0B5A2B0C1
:10059C0008AF444B07F134041D460FCD0FC40FCDEB
:1005AC000FC495E80F0084E80F003F4B3C1D1D461F
:1005BC000FCD0FC40FCD0FC495E80F0084E80F00CA
:1005CC0000237B6665E07B6EC3F10C03374AD35C7A
:1005DC00DBB2012B2DD1364B1B68364A1268114603
:1005EC00184600F0F3FE7B6E9B0068333B4453F8D7
:1005FC00643C9BB20793A523069300230593052324
:10060C0004930123039301230293012301930023F9
:10061C000093002300220021002000F082FD7B6E5D
:10062C009B0068333B4453F8343C184600F0B2FE50
:10063C002CE0204B1B681F4A12681146184600F02C
:10064C00C5FE7B6E9B0068333B4453F8643C9BB205
:10065C000793A523069300230593052304930123F5
:10066C00039301230293012301930023009300239E
:10067C0000220021002000F054FD7B6E9B006833AB
:10068C003B4453F8343C184600F084FE7B6E013337
:10069C007B667B6E0B2B96DD00BF00BF6837BD46BB
:1006AC00B0BD00BF98670008C8670008FC030020B5
:1006BC0004000020E4000020B0B590B008AF1D4B42
:1006CC001B681D4A12681146184600F07FFE002375
:1006DC000793192306930023059305230493012301
:1006EC00039301230293012301930023009300231E
:1006FC0000220121002000F014FD3B460F4A1C464D
:10070C0015460FCD0FC42B6823803B461846FFF7C8
:10071C00F7FC02463B461344094A1268094918463D
:10072C0005F000FB3B46184600F034FE00BF2037B6
:10073C00BD46B0BD0C000020E40000202468000879
:10074C005C0400202068000880B584B000AF03462C
:10075C000A46FB8013467B717B79013BFB6025E0ED
:10076C00FA88FB6842FA03F303F00103002B05D06F
:10077C0001222021114803F08CFA04E000222021F0
:10078C000E4803F086FA012210210C4803F081FA7E
:10079C00052000F05DF800221021084803F079FADA
:1007AC00052000F055F8FB68013BFB60FB68002B53
:1007BC00D6DA00BF00BF1037BD4680BD000C01402B
:1007CC0080B582B000AF0346FB71002208210C48B3
:1007DC0003F05FFA0A2000F03BF8FB799BB2092189
:1007EC001846FFF7B1FF01220821054803F051FA22
:1007FC000A2000F02DF800BF0837BD4680BD00BFB1
:10080C00000C014080B582B000AF0346FB710022A2
:10081C0008210E4803F03DFA0A2000F019F8FB7984
:10082C001BB243F480731BB29BB209211846FFF72D
:10083C008BFF01220821054803F02BFA0A2000F057
:10084C0007F800BF0837BD4680BD00BF000C014053
:10085C0080B586B000AF0346FB80154B9B687B616F
:10086C0003F02AFE0346134AA2FB03239B0CFA88CF
:10087C0002FB03F33B610E4B5B680133FB6008E04A
:10088C000B4B9B68FA689A4203D27A69FB68D31ABD
:10089C007B61074B9B687A69D31A23F07F433A69D3
:1008AC009A42EDD800BF00BF1837BD4680BD00BFCF
:1008BC0010E000E083DE1B4380B500AFFF20FFF7A4
:1008CC007FFF7720FFF79EFF0120FFF79BFF0020A3
:1008DC00FFF798FF0020FFF795FF1320FFF792FF1B
:1008EC00EF20FFF76DFF0820FFF78CFFFF20FFF7CD
:1008FC0067FF7720FFF786FF0120FFF783FF0020BB
:10090C00FFF780FF0020FFF77DFF1020FFF77AFF35
:10091C00C020FFF755FF7720FFF774FF0020FFF78B
:10092C0071FFC120FFF74CFF1120FFF76BFF0C206C
:10093C00FFF768FFC220FFF743FF0720FFF762FFB6
:10094C000220FFF75FFFC320FFF73AFF8020FFF77D
:10095C0059FF1020FFF756FF1020FFF753FFCC2054
:10096C00FFF72EFF3020FFF74DFFB020FFF728FFD9
:10097C000620FFF747FFCF20FFF744FF1420FFF7B7
:10098C0041FF0C20FFF73EFF0F20FFF73BFF03203A
:10099C00FFF738FF0020FFF735FF0A20FFF732FF83
:1009AC000720FFF72FFF1B20FFF72CFF0320FFF77B
:1009BC0029FF1220FFF726FF1020FFF723FF252029
:1009CC00FFF720FF3620FFF71DFF1E20FFF71AFF51
:1009DC00B120FFF7F5FE0C20FFF714FFD420FFF732
:1009EC0011FF1820FFF70EFF0C20FFF70BFF0E2056
:1009FC00FFF708FF0620FFF705FF0320FFF702FFB4
:100A0C000620FFF7FFFE0820FFF7FCFE2320FFF770
:100A1C00F9FE0620FFF7F6FE1220FFF7F3FE10207A
:100A2C00FFF7F0FE3020FFF7EDFE2F20FFF7EAFE78
:100A3C001F20FFF7E7FEFF20FFF7C2FE7720FFF72E
:100A4C00E1FE0120FFF7DEFE0020FFF7DBFE0020B9
:100A5C00FFF7D8FE1120FFF7D5FEB020FFF7B0FE50
:100A6C007320FFF7CFFEB120FFF7AAFE7C20FFF723
:100A7C00C9FEB220FFF7A4FE8320FFF7C3FEB3200C
:100A8C00FFF79EFE8020FFF7BDFEB520FFF798FE16
:100A9C004920FFF7B7FEB720FFF792FE8720FFF73C
:100AAC00B1FEB820FFF78CFE3320FFF7ABFEB92068
:100ABC00FFF786FE1020FFF7A5FE1F20FFF7A2FE12
:100ACC00BB20FFF77DFE0320FFF79CFEC120FFF744
:100ADC0077FE0820FFF796FEC220FFF771FE082074
:100AEC00FFF790FED020FFF76BFE8820FFF78AFE01
:100AFC00E020FFF765FE0020FFF784FE0020FFF7E3
:100B0C0081FE0220FFF77EFE0020FFF77BFE002017
:100B1C00FFF778FE0C20FFF775FEE120FFF750FE83
:100B2C000520FFF76FFE9620FFF76CFE0720FFF7FE
:100B3C0069FE9620FFF766FE0620FFF763FE9620FF
:100B4C00FFF760FE0820FFF75DFE9620FFF75AFEC8
:100B5C000020FFF757FE4420FFF754FE4420FFF718
:100B6C0051FEE220FFF72CFE0020FFF74BFE002089
:100B7C00FFF748FE0320FFF745FE0320FFF742FE78
:100B8C000020FFF73FFE0020FFF73CFE0220FFF79E
:100B9C0039FE0020FFF736FE0020FFF733FE002061
:100BAC00FFF730FE0220FFF72DFE0020FFF72AFE94
:100BBC00E320FFF705FE0020FFF724FE0020FFF7DF
:100BCC0021FE3320FFF71EFE3320FFF71BFEE4202F
:100BDC00FFF7F6FD4420FFF715FE4420FFF712FE49
:100BEC00E520FFF7EDFD0D20FFF70CFED420FFF7FD
:100BFC0009FE2820FFF706FE8C20FFF703FE0F20CE
:100C0C00FFF700FED620FFF7FDFD2820FFF7FAFDC9
:100C1C008C20FFF7F7FD0920FFF7F4FDD020FFF73C
:100C2C00F1FD2820FFF7EEFD8C20FFF7EBFD0B20EC
:100C3C00FFF7E8FDD220FFF7E5FD2820FFF7E2FDE6
:100C4C008C20FFF7DFFDE620FFF7BAFD0020FFF751
:100C5C00D9FD0020FFF7D6FD3320FFF7D3FD33205D
:100C6C00FFF7D0FDE720FFF7ABFD4420FFF7CAFDEF
:100C7C004420FFF7C7FDE820FFF7A2FD0E20FFF789
:100C8C00C1FDD520FFF7BEFD2820FFF7BBFD8C2052
:100C9C00FFF7B8FD1020FFF7B5FDD720FFF7B2FD29
:100CAC002820FFF7AFFD8C20FFF7ACFD0A20FFF7E3
:100CBC00A9FDD120FFF7A6FD2820FFF7A3FD8C206E
:100CCC00FFF7A0FD0C20FFF79DFDD320FFF79AFD49
:100CDC002820FFF797FD8C20FFF794FDEB20FFF702
:100CEC006FFD0020FFF78EFD0120FFF78BFDE42048
:100CFC00FFF788FDE420FFF785FD4420FFF782FD18
:100D0C000020FFF77FFDED20FFF75AFDF320FFF7E2
:100D1C0079FDC120FFF776FDBA20FFF773FD0F2098
:100D2C00FFF770FD6620FFF76DFD7720FFF76AFD7A
:100D3C004420FFF767FD5520FFF764FD5520FFF7B2
:100D4C0061FD4420FFF75EFD7720FFF75BFD662019
:100D5C00FFF758FDF020FFF755FDAB20FFF752FDD4
:100D6C001C20FFF74FFD3F20FFF74CFDEF20FFF756
:100D7C0027FD1020FFF746FD0D20FFF743FD042053
:100D8C00FFF740FD0820FFF73DFD3F20FFF73AFD40
:100D9C001F20FFF737FDFF20FFF712FD7720FFF72D
:100DAC0031FD0120FFF72EFD0020FFF72BFD002069
:100DBC00FFF728FD1320FFF725FDE820FFF700FDC6
:100DCC000020FFF71FFD0E20FFF71CFDE820FFF7AA
:100DDC00F7FC0020FFF716FD0C20FFF713FD0A208F
:100DEC0002F02AFBE820FFF7EBFC4020FFF70AFD9E
:100DFC000020FFF707FDFF20FFF7E2FC7720FFF74D
:100E0C0001FD0120FFF7FEFC0020FFF7FBFC00209A
:100E1C00FFF7F8FC0020FFF7F5FC3620FFF7D0FCBD
:100E2C000020FFF7EFFC3A20FFF7CAFC6620FFF723
:100E3C00E9FC1120FFF7C4FC782002F0FDFA292010
:100E4C00FFF7BEFC142002F0F7FA00BF80BD0000D3
:100E5C0080B500AF00224FF48061084802F019FF02
:100E6C000A2002F0E9FA01224FF48061034802F0F3
:100E7C0010FF0A2002F0E0FA00BF80BD000C014018
:100E8C0080B584B000AF0346FB710023FB730022D6
:100E9C0010210D4802F0FDFE07F10F014FF0FF335A
:100EAC0001220A4803F0B4FBF91D4FF0FF33012275
:100EBC00064803F0ADFB01221021034802F0E9FEC5
:100ECC0000BF1037BD4680BD0008014064040020FF
:100EDC0080B584B000AF0346FB718023FB73002206
:100EEC0010210D4802F0D5FE07F10F014FF0FF3332
:100EFC0001220A4803F08CFBF91D4FF0FF3301224D
:100F0C00064803F085FB01221021034802F0C1FEC4
:100F1C0000BF1037BD4680BD0008014064040020AE
:100F2C0080B582B000AF4023FB710023BB7100225F
:100F3C001021144802F0ADFEF91D4FF0FF330122D1
:100F4C00114803F065FB0346002B0DD1B91D4FF082
:100F5C00FF3301220C4803F097FC0346002B03D10E
:100F6C000A4B01221A7002E0084B00221A7001226F
:100F7C001021044802F08DFEBB7918460837BD4697
:100F8C0080BD00BF0008014064040020E800002080
:100F9C0080B582B000AFC023FB710023BB7100226F
:100FAC0010210D4802F075FEF91D4FF0FF330122A0
:100FBC000A4803F02DFBB91D4FF0FF3301220748FF
:100FCC0003F062FC01221021034802F062FEBB799F
:100FDC0018460837BD4680BD000801406404002057
:100FEC0080B582B000AF03460A46FB711346BB7155
:100FFC00FB791846FFF744FFBB791846FFF768FFEB
:10100C0000BF0837BD4680BD80B500AF00F07EFD47
:10101C000A2002F011FA00F063FA642002F00CFAD4
:10102C0000F07DFB052002F007FA00F0DBFB6420EA
:10103C0002F002FA8420FFF723FF0020FFF748FF9D
:10104C00052002F0F9F900F0F5FC052002F0F4F9A6
:10105C004FF47071F02000F009FC052002F0ECF95F
:10106C00882000F04AFC052002F0E6F9052000F08B
:10107C0067FC052002F0E0F9052000F07DFC05205E
:10108C0002F0DAF90A2000F093FC052002F0D4F902
:10109C00052000F0A7FC052002F0CEF9052000F099
:1010AC00B5FC052002F0C8F900F0A1FD052002F006
:1010BC00C3F900F0C7FA052002F0BEF900F054FDA8
:1010CC00052002F0B9F900F05FFD052002F0B4F93B
:1010DC0000F0D1F9052002F0AFF900F078FD052001
:1010EC0002F0AAF900F0C5FD052002F0A5F900F008
:1010FC00ECFD052002F0A0F900F08DFD052002F0BA
:10110C009BF900F098FD052002F096F900F010FD17
:10111C00052002F091F900F096F900F0B7F800BF45
:10112C0080BD90B585B000AF0446084611461A46FE
:10113C002346FB710346BB710B467B7113463B7117
:10114C000023FB730023BB7397F907309B015AB242
:10115C0097F90F3013435BB2FB7397F906301B0101
:10116C005BB203F030035AB297F90F3013435BB202
:10117C00FB7397F9053003F003035AB297F90F305C
:10118C0013435BB2FB73CC20FFF77AFEFB7B184654
:10119C00FFF79EFE97F90430DB015AB297F90E3037
:1011AC0013435BB2BB7397F920309B015AB297F98A
:1011BC000E3013435BB2BB7397F924301B015AB248
:1011CC0097F90E3013435BB2BB7397F928309B0031
:1011DC005BB203F00C035AB297F90E3013435BB2B7
:1011EC00BB7397F92C3003F003035AB297F90E3006
:1011FC0013435BB2BB73CD20FFF742FEBB7B18469B
:10120C00FFF766FED020FFF73BFE97F8303003F077
:10121C001F03DBB21846FFF75BFED120FFF730FE51
:10122C0097F8343003F03F03DBB21846FFF750FE5B
:10123C006320FFF725FE3B8FDBB21846FFF748FE15
:10124C006420FFF71DFE3B8F1B0A9BB2DBB203F041
:10125C001F03DBB21846FFF73BFE6520FFF710FEBD
:10126C00BB8FDBB21846FFF733FE6620FFF708FE94
:10127C00BB8F1B0A9BB2DBB203F01F03DBB2184619
:10128C00FFF726FE00BF1437BD4690BD80B58AB06F
:10129C0008AF08237B8010233B800021002000F046
:1012AC0095F800230793002306930023059300234E
:1012BC00049301230393012302930123019300233D
:1012CC0000930023002200210020FFF72AFF0023B7
:1012DC00FB803AE00023BB8030E06320FFF7D0FDB9
:1012EC00BB88DBB21846FFF7F3FD6420FFF7C8FD9F
:1012FC00BB881B0A9BB2DBB203F01F03DBB21846A0
:10130C00FFF7E6FD6520FFF7BBFDFB88DBB2184657
:10131C00FFF7DEFD6620FFF7B3FDFB881B0A9BB2CF
:10132C00DBB203F01F03DBB21846FFF7D1FD0B480D
:10133C0000F030F8BA883B881344BB80BB88EF2B95
:10134C00CBD9FA887B881344FB80FB88B3F5707F7C
:10135C00C0D300BF00BF0837BD4680BDD0680008B1
:10136C0080B582B000AF0A4B7B60FFF7D9FD034616
:10137C00FB70FB7803F00803002B05D07B68013B66
:10138C007B607B68002BF0D100BF0837BD4680BD69
:10139C00A086010080B582B000AF78600CE0FFF74A
:1013AC00DFFF0420FFF76CFD7B681B781846FFF706
:1013BC008FFD7B6801337B607B681B78002BEED143
:1013CC00FFF7CEFF00BF0837BD4680BD80B582B0A9
:1013DC0000AF78603960D220FFF752FD7B681B0CA0
:1013EC00DBB21846FFF774FDD320FFF749FD7B688D
:1013FC001B0ADBB21846FFF76BFDD420FFF740FD4C
:10140C007B68DBB21846FFF763FDD520FFF738FD8C
:10141C003B681B0CDBB21846FFF75AFDD620FFF7D2
:10142C002FFD3B681B0ADBB21846FFF751FDD72096
:10143C00FFF726FD3B68DBB21846FFF749FD00BFFE
:10144C000837BD4680BD80B582B000AF0023FB716C
:10145C00FB7943F00403FB71FB7923F00303FB716D
:10146C000320FFF70DFDFB791846FFF731FD00BF98
:10147C000837BD4680BD80B500AF5620FFF700FD94
:10148C000020FFF725FD5720FFF7FAFC0020FFF79F
:10149C001FFD5820FFF7F4FC0020FFF719FD592021
:1014AC00FFF7EEFC0020FFF713FD5A20FFF7E8FCD6
:1014BC00EF20FFF70DFD5B20FFF7E2FC0020FFF7AC
:1014CC0007FD5C20FFF7DCFCBF20FFF701FD5D2072
:1014DC00FFF7D6FC0320FFF7FBFC00BF80BD00002C
:1014EC0080B588B000AF554B7B617B6903F5F42365
:1014FC0003F59073524AA2FB03239B0C7B617B691F
:10150C00FB837B699BB25B00BB837B699BB25B00FB
:10151C007B83FB8B412B01D94123FB83BB8B642B3E
:10152C0001D96423BB837B8B642B01D964237B831C
:10153C0002237B8202233B820223FB810523BB8196
:10154C0005237B8105233B81FB8BFB807B8BBB8045
:10155C00BB8B7B800520FFF793FC7B8A5BB29B01E6
:10156C005AB2BB895BB25B005BB213435AB2FB88C5
:10157C001B0A9BB25BB203F001035BB213435BB279
:10158C00DBB21846FFF7A4FC0620FFF779FCFB88BA
:10159C00DBB21846FFF79CFC0720FFF771FCFB89B8
:1015AC005BB29B015AB23B895BB25B005BB21343EB
:1015BC005AB27B881B0A9BB25BB203F001035BB28D
:1015CC0013435BB2DBB21846FFF782FC0820FFF72F
:1015DC0057FC7B88DBB21846FFF77AFC0920FFF733
:1015EC004FFC3B8A5BB29B015AB27B895BB25B00BE
:1015FC005BB213435AB2BB881B0A9BB25BB203F0BB
:10160C0001035BB213435BB2DBB21846FFF760FC1D
:10161C000A20FFF735FCBB88DBB21846FFF758FCF5
:10162C000020FFF72DFC8020FFF752FC0A2001F070
:10163C0003FF00BF2037BD4680BD00BF60535A0179
:10164C0083DE1B4380B582B000AF0023FB71FB79B6
:10165C0043F00403FB711020FFF712FCFB791846D2
:10166C00FFF736FC2A20FFF70BFC0020FFF730FCBD
:10167C002B20FFF705FC0020FFF72AFC2C20FFF79E
:10168C00FFFB0020FFF724FC2D20FFF7F9FB0020C7
:10169C00FFF71EFC2E20FFF7F3FB6420FFF718FC6E
:1016AC002F20FFF7EDFB0020FFF712FC3020FFF797
:1016BC00E7FB6420FFF70CFC3120FFF7E1FB002077
:1016CC00FFF706FC3220FFF7DBFB0020FFF700FCE6
:1016DC003320FFF7D5FB0020FFF7FAFB3420FFF790
:1016EC00CFFB0020FFF7F4FB3520FFF7C9FB0020F0
:1016FC00FFF7EEFB0023BB71BB7943F00403BB7116
:10170C00BB7943F00103BB711120FFF7B9FBBB7927
:10171C001846FFF7DDFB00BF0837BD4680BD80B51E
:10172C0082B000AF0023FB71E420FFF7A9FBFB792B
:10173C0043F00403FB71FB791846FFF7C9FBE0206B
:10174C00FFF79EFB2920FFF7C3FBE120FFF798FB77
:10175C000320FFF7BDFB9C23BB80BB88023BBB80F7
:10176C00E220FFF78DFBBB88DBB21846FFF7B0FB1E
:10177C00E320FFF785FBBB881B0A9BB2DBB2184644
:10178C00FFF7A6FBE420FFF77BFB0120FFF7A0FB94
:10179C00E420FFF775FBFB7923F00403FB71FB7965
:1017AC001846FFF795FB012001F046FE00F004F807
:1017BC0000BF0837BD4680BD80B582B000AFE420C5
:1017CC00FFF75EFBFFF7E4FB0346FB71FB7903F0CD
:1017DC000103002BF3D00A2001F02EFE00BF0837C6
:1017EC00BD4680BD80B582B000AF0023FB71FB7994
:1017FC0043F00803FB71FB7943F04003FB710120BC
:10180C00FFF73EFBFB791846FFF762FB0023FB71E9
:10181C000220FFF735FBFB791846FFF759FB002335
:10182C00FB710320FFF72CFBFB791846FFF750FBED
:10183C000023FB711220FFF723FBFB791846FFF7FF
:10184C0047FB0023FB71FB7943F00203FB71FB792F
:10185C0043F00103FB711320FFF712FBFB791846D1
:10186C00FFF736FB00BF0837BD4680BD80B584B09E
:10187C0000AF03460A46FB801346BB80FB88DB089F
:10188C009BB2013BFB810023BB811420FFF7F8FACC
:10189C00FB89DBB21846FFF71BFB1520FFF7F0FAAC
:1018AC00BB89DBB203F00F03DBB21846FFF710FB6A
:1018BC00BB88B3F5806F02D94FF48063BB80BB88C3
:1018CC00002B01D10123BB80BB88013B7B811A20FB
:1018DC00FFF7D6FA7B89DBB21846FFF7F9FA1B2023
:1018EC00FFF7CEFA7B891B0A9BB2DBB21846FFF7D7
:1018FC00EFFA00BF1037BD4680BD80B584B000AF95
:10190C000346FB80FB88DB089BB2013BFB81002379
:10191C00BB811620FFF7B4FAFB89DBB21846FFF740
:10192C00D7FA1720FFF7ACFABB89DBB203F00F0331
:10193C00DBB21846FFF7CCFA00BF1037BD4680BDAE
:10194C0080B584B000AF0346FB80FB88072B02D820
:10195C000023FB8104E0FB88DB089BB2013BFB818D
:10196C001820FFF78DFAFB89DBB21846FFF7B0FAA7
:10197C0000BF1037BD4680BD80B584B000AF0346B4
:10198C00FB80FB88072B02D80023FB8104E0FB883B
:10199C00DB089BB2013BFB811920FFF771FAFB8935
:1019AC00DBB21846FFF794FA00BF1037BD4680BD76
:1019BC0080B584B000AF0346FB80FB88DBB2013BF3
:1019CC00FB731C20FFF75CFAFB7B1846FFF780FAD1
:1019DC001D20FFF755FA0020FFF77AFA00BF1037E9
:1019EC00BD4680BD80B584B000AF0346FB80FB884C
:1019FC00DBB2013BFB731E20FFF742FAFB7B184660
:101A0C00FFF766FA00BF1037BD4680BD80B584B0C5
:101A1C0000AF0346FB80FB88DBB2013BFB731F204E
:101A2C00FFF72EFAFB7B1846FFF752FA00BF103770
:101A3C00BD4680BD80B582B000AF0023FB71FB7941
:101A4C0043F04003FB71FB7943F00803FB71122058
:101A5C00FFF716FAFB791846FFF73AFA00BF08377A
:101A6C00BD4680BD80B584B000AF0346FB71FB79E9
:101A7C00642B01D96423FB718420FFF701FA102039
:101A8C00FFF726FA8520FFF7FBF98820FFF720FAED
:101A9C00FA7913461B029B1A1B4A82FB0312521142
:101AAC00DB17D31AFB81FF23BB818C20FFF7E8F9EE
:101ABC00FB89DBB21846FFF70BFA8D20FFF7E0F934
:101ACC00FB891B0A9BB2DBB21846FFF701FA8E208A
:101ADC00FFF7D6F9BB89DBB21846FFF7F9F98F206F
:101AEC00FFF7CEF9BB891B0A9BB2DBB21846FFF796
:101AFC00EFF98620FFF7C4F93020FFF7E9F900BFB2
:101B0C001037BD4680BD00BF1F85EB5180B582B03C
:101B1C0000AF0023FB71FB7943F00103FB71FB79F0
:101B2C0019460020FFF75CFA00BF0837BD4680BDA0
:101B3C0080B500AF2020FFF7A3F90020FFF7C8F90C
:101B4C002120FFF79DF90020FFF7C2F92220FFF7B3
:101B5C0097F90020FFF7BCF92320FFF791F900203B
:101B6C00FFF7B6F900BF80BD80B500AF2420FFF7AA
:101B7C0087F9F020FFF7ACF92520FFF781F9002059
:101B8C00FFF7A6F900BF80BD80B582B000AF00237F
:101B9C00FB80FB88DBB223F003037B71FB881B0A01
:101BAC009BB2DBB203F01F033B712620FFF768F9F1
:101BBC007B791846FFF78CF92720FFF761F93B7901
:101BCC001846FFF785F900BF0837BD4680BD80B5C4
:101BDC0000AF2820FFF754F90020FFF779F92920EE
:101BEC00FFF74EF90020FFF773F900BF80BD80B5F9
:101BFC0082B000AF0023FB71FB7943F00103FB7152
:101C0C005E20FFF73DF9FB791846FFF761F900BF3D
:101C1C000837BD4680BD80B500AF5F20FFF730F9B7
:101C2C000020FFF755F96020FFF72AF90020FFF795
:101C3C004FF900BF80BD80B582B000AF0023FB80A0
:101C4C006120FFF71DF9FB88DBB21846FFF740F95E
:101C5C006220FFF715F9FB881B0A9BB2DBB203F07D
:101C6C001F03DBB21846FFF733F900BF0837BD4638
:101C7C0080BD80B582B000AF00237B605020FFF7A1
:101C8C00FFF87B68DBB21846FFF722F95120FFF70B
:101C9C00F7F87B681B0ADBB21846FFF719F95220DC
:101CAC00FFF7EEF87B681B0CDBB21846FFF710F958
:101CBC005320FFF7E5F87B681B0EDBB21846FFF7E5
:101CCC0007F900BF0837BD4680BD80B500AF542072
:101CDC00FFF7D6F8F020FFF7FBF85520FFF7D0F808
:101CEC000020FFF7F5F800BF80BD90B583B000AFC2
:101CFC000446084611461A462346FB800346BB8021
:101D0C000B467B8013463B806820FFF7B9F8FB88B5
:101D1C00DBB21846FFF7DCF86920FFF7B1F8FB8857
:101D2C001B0A9BB2DBB203F01F03DBB21846FFF7B2
:101D3C00CFF86A20FFF7A4F8BB88DBB21846FFF790
:101D4C00C7F86B20FFF79CF8BB881B0A9BB2DBB271
:101D5C0003F01F03DBB21846FFF7BAF86C20FFF74D
:101D6C008FF87B88DBB21846FFF7B2F86D20FFF7CF
:101D7C0087F87B881B0A9BB2DBB203F01F03DBB234
:101D8C001846FFF7A5F86E20FFF77AF83B88DBB210
:101D9C001846FFF79DF86F20FFF772F83B881B0A77
:101DAC009BB2DBB203F01F03DBB21846FFF790F8CF
:101DBC00D220FFF765F83B8BDBB21846FFF788F8AB
:101DCC00D320FFF75DF8BB8BDBB21846FFF780F82A
:101DDC00D420FFF755F83B8CDBB21846FFF778F8A8
:101DEC006720FFF74DF88020FFF772F800BF0C3723
:101DFC00BD4690BD80B584B004AF00230293002390
:101E0C0001930023009340F2BF33EF2240F2BF3125
:101E1C000020FFF76AFF00230293002301930023A5
:101E2C00009340F2BE33EF2240F2BE310020FFF7A8
:101E3C005CFF00230293002301930023009340F2E4
:101E4C00BD33EF2240F2BD310020FFF74EFF0023DF
:101E5C00029300230193002300934FF46F73EF223E
:101E6C004FF46F710020FFF740FF00230293002313
:101E7C0001930023009340F2BB33EF2240F2BB31BD
:101E8C000020FFF732FF002302930023019300236D
:101E9C00009340F2BA33EF2240F2BA310020FFF740
:101EAC0024FF00230293002301930023009340F2AC
:101EBC00B933EF2240F2B9310020FFF716FF0023AF
:101ECC00029300230193002300934FF46E73EF22CF
:101EDC004FF46E710020FFF708FF002302930023DC
:101EEC0001930023009340F2B733EF2240F2B73155
:101EFC000020FFF7FAFE00BFBD4680BD80B58AB05A
:101F0C0000AF4FF40061924801F0ACFE0346FB7247
:101F1C00FB7A012B0CBF01230023DBB21A468D4B3D
:101F2C001A708C4B1B78DAB28B4B1A70FB7A012B24
:101F3C0005D18A4B1B680133884A136004E0884B37
:101F4C001B680133864A1360864B1B680133854A34
:101F5C0013604FF480517E4801F084FE0346012B40
:101F6C0040F07F83FB7A012B01D1012300E0002399
:101F7C00BB727D4B1B78BA7A9A4215D07B4B0022F0
:101F8C001A707B4B00221A707A4B00221A70BB7AA3
:101F9C00002B06D0784B00221A80784B00221A7046
:101FAC0002E0774B02221A706F4ABB7A1370FB7AED
:101FBC00012B40F08581734B1B680133714A136010
:101FCC004FF48041624801F04DFE034603F00103DB
:101FDC00FB706D4AFB781370FB78002B04D06B4BB5
:101FEC001B680133694A1360694B1B885A1C91B2F8
:101FFC00674A11801946674AFB785354644B1B8817
:10200C00DBB29AB2624B1A80634B1B680133624A93
:10201C001360FB78594A127893409AB2564B1B883E
:10202C0013439AB2544B1A80544B1B780133DAB2D7
:10203C00524B1A70514B1B780A2B40F013834E4BAA
:10204C001A88564B1A80554B1B889AB2544B1A80DF
:10205C00544B1B78DBB25A1CD1B2524A117003F0AC
:10206C000F034E4A128891B24F4A22F813104B4B71
:10207C001B889BB203F47F63602B04D14B4B1B6812
:10208C0001334A4A1360454B1B889BB203F47F63B0
:10209C00A02B04D1464B1B680133454A13603F4BC0
:1020AC001B889BB2282B26D03C4B1B889BB2682BE1
:1020BC0021D03A4B1B889BB2A82B1CD0374B1B88CA
:1020CC009BB2B3F53C7F16D0344B1B889BB2B3F557
:1020DC00387F10D0314B1B889BB2B3F57C7F0AD074
:1020EC002E4B1B889BB2B3F5487F04D0314B1B6839
:1020FC000133304A1360204B1A882F4B1A801E4B29
:10210C0000221A801D4B00221A702C4B1B78DBB25C
:10211C00002B11D02A4B1B78002B0DD0294B1B68A0
:10212C000133284A1360254B00221A70244B0022DD
:10213C001A70254B00221A70184B1B889BB2282B47
:10214C0046D1224B1B680133204A136075E000BF57
:10215C00000C014001030020F002002008030020C5
:10216C000C030020F4020020320300205403002052
:10217C0055030020560300205C0300205E03002062
:10218C005F030020580300200003002004030020FC
:10219C00EC020020EC000020F802002010030020CC
:1021AC0060030020900300207003002068030020CF
:1021BC006C0300206403002048030020130300205C
:1021CC0033030020500300201403002038030020A8
:1021DC00874B1B889BB21A4640F6F8731340682B4A
:1021EC0005D1844B1B680133824A136025E0804B78
:1021FC001B889BB21A4640F6F8731340A82B05D1E6
:10220C007D4B1B6801337C4A136016E0784B1B88AE
:10221C009BB2B3F53C7F05D1784B1B680133774AF1
:10222C0013600AE0724B1B889BB2B3F5387F04D164
:10223C00734B1B680133724A1360724B00221A7085
:10224C00714B00221A706A4B1B889BB2282B06D14B
:10225C006E4B06221A706E4B01221A702AE0644BE8
:10226C001B889BB2682B06D1684B06221A70684BF0
:10227C0002221A701EE05E4B1B889BB2A82B06D163
:10228C00624B06221A70624B03221A7012E0584BF2
:10229C001B889BB2B3F53C7F06D15C4B02221A70B3
:1022AC005B4B04221A7005E0584B00221A70584BF5
:1022BC0000221A70554B1B78DAB2564B1A70D1E1CA
:1022CC00554B1B78002B06D0534B1B78013BDAB2D5
:1022DC00514B1A70C6E14FF40041504801F0C2FC5A
:1022EC00034603F001037B724D4A7B7A13707B7AB1
:1022FC00002B04D04B4B1B6801334A4A13604A4BEA
:10230C001B885A1C91B2484A11801946474A7B7A5D
:10231C005354454B1B88DBB29AB2434B1A80444B47
:10232C001B680133424A13607B7A424A127893400D
:10233C00DAB2414B1B781343DAB23F4B1A703D4B68
:10234C001B780133DAB23B4B1A703A4B1B78082BD3
:10235C0040F08881384B1A78384B1A70364B002273
:10236C001A70344B00221A70284B1B78DBB2002BEE
:10237C0000F07881264B1B78002B00F07381244BE6
:10238C001B78012B0ED11F4B1B78DBB2052B09D808
:10239C001C4B1B78DBB21A46284B1B78D9B2284B46
:1023AC00995465E01A4B1B78022B0ED1154B1B78F8
:1023BC00DBB2052B09D8134B1B78DBB21A461F4B2B
:1023CC001B78D9B21F4B995452E0114B1B78032B3D
:1023DC003CD10C4B1B78DBB2052B37D8094B1B7847
:1023EC00DBB21A46154B1B78D9B2174B99543FE008
:1023FC00100300203C030020400300204403002075
:10240C004C030020140300201503002013030020AC
:10241C0033030020340300205F030020000C014034
:10242C000003002004030020EE020020EC01002039
:10243C00FC0200205603002055030020120300204C
:10244C00180300202003002028030020874B1B7852
:10245C00042B0DD1864B1B78DBB2012B08D8844B97
:10246C001B78DBB21A46834B1B78D9B2824B99543A
:10247C007F4B1B78DBB20133DAB27D4B1A707C4B8D
:10248C001B78DAB27D4B1B78DBB29A42C0F0EA8043
:10249C00764B1B783B72794B00221A70734B0022DF
:1024AC001A703B7A032B32D1754B1B680133744A7B
:1024BC001360744B1B889AB2734B1A80002387F8F5
:1024CC00273000233B6216E0704A3B6A13441B78AA
:1024DC00D9B26F4A3B6A13440A461A706B4A3B6A7C
:1024EC0013441B78DAB297F82730134387F8273058
:1024FC003B6A01333B623B6A052BE5DD97F82730DD
:10250C00002B04D0634B1B680133624A13603B7A87
:10251C00012B05D03B7A022B02D03B7A032B78D1CE
:10252C005D495E4800F096FA5B4BDB7ADBB22E2BF2
:10253C0001D1012200E00022594B1A70594B0122A3
:10254C001A70564B1B7ADAB2574B1A70534B1B7AD4
:10255C00DAB2564B1A700023FB610023BB611DE0FD
:10256C00FB695A1CFA614D49BA690A441278D1B216
:10257C004F4AD154484ABB6913441B78DBB2202B19
:10258C0009D0FB695A1CFA614349BA690A441278AA
:10259C00D1B2474AD154BB690133BB61BB690B2B28
:1025AC00DEDD434AFB69134400221A7000237B6171
:1025BC0011E07B69DBB20133BB71BB79184600F0CB
:1025CC002BF9034619463B4A7B6913440A461A7099
:1025DC007B6901337B617B690B2BEADD00233B615B
:1025EC0011E03B69DBB20133FB71FB79184600F05B
:1025FC007DFA03461946304A3B6913440A461A7061
:10260C003B6901333B613B690B2BEADD2B4B012210
:10261C001A703B7A042B25D1174B1B78DBB21AB2FC
:10262C00154B5B78DBB21BB21B021BB213431BB204
:10263C00BB800123FB6010E0BA88FB68013B42FAC7
:10264C0003F3DBB203F00103D9B21D4AFB68134458
:10265C000A461A70FB680133FB60FB680C2BEBDD40
:10266C0000E000BF2837BD4680BD00BF330300200B
:10267C001403002012030020300300201303002059
:10268C0094030020100300209E0300202803002048
:10269C0098030020A0030020CC030020BC030020E2
:1026AC000C0400200B040020090400200A04002064
:1026BC00DC030020A4030020B0030020150300203D
:1026CC00FC03002080B58AB000AF07F1180300228C
:1026DC001A605A609A60DA6007F1100300221A60DF
:1026EC005A603B4600221A605A609A60DA60274BA7
:1026FC00274A1A60254B47225A60244B00229A60C5
:10270C00224B4FF6FF72DA60204B00221A611F4BEE
:10271C0000229A611D4802F063FC0346002B01D095
:10272C0000F097FC4FF48053BB6107F11803194676
:10273C00164802F04FFF0346002B01D000F089FC35
:10274C0000233B6001237B600023BB600023FB6004
:10275C003B460C2219460D4802F0A8FE0346002BFE
:10276C0001D000F076FC00233B6100237B6107F174
:10277C0010031946054803F03FFA0346002B01D01D
:10278C0000F067FC00BF2837BD4680BD1004002058
:10279C000004004080B500AF024802F07FFD00BF8E
:1027AC0080BD00BF1004002080B582B000AF03468E
:1027BC00FB80FB88B3F5006F0DD14FF40061084826
:1027CC0001F050FA03461A46064B1A704FF40051AA
:1027DC00054801F076FA00BF0837BD4680BD00BF42
:1027EC00000C0140F00200200010014080B582B0C6
:1027FC0000AF78607B681B68064A934205D17B6802
:10280C001B7F082B01D1FFF779FB00BF0837BD46B2
:10281C0080BD00BF0004004080B485B000AF03460B
:10282C00FB71FB79C3F10C03DA0F13445B10BB7320
:10283C00FB7903F00103002B0CBF01230023DBB257
:10284C007B73BB7B534AD35C3B73BB7B524AD35CDD
:10285C00FB72BB7B514AD35CBB720023FB737B7B4B
:10286C00002B45D0BB7A9B01DBB203F04003DAB2FC
:10287C00FB7B1343FB73FB7A5B08DBB25B01DBB2C4
:10288C0003F02003DAB2FB7B1343FB73FB7A1B01CF
:10289C00DBB203F01003DAB2FB7B1343FB733B7B1D
:1028AC00DB08DBB2DB00DBB203F00803DAB2FB7B44
:1028BC001343FB733B7B9B08DBB29B00DBB203F047
:1028CC000403DAB2FB7B1343FB733B7B5B08DBB289
:1028DC005B00DBB203F00203DAB2FB7B1343FB7346
:1028EC003B7B03F00103DAB2FB7B1343FB734AE03F
:1028FC00BB7A1B09DBB29B01DBB203F04003DAB2FB
:10290C00FB7B1343FB73FB7A5B09DBB25B01DBB232
:10291C0003F02003DAB2FB7B1343FB73FB7A1B0936
:10292C00DBB21B01DBB203F01003DAB2FB7B134307
:10293C00FB733B7BDB09DBB2DB00DBB203F0080390
:10294C00DAB2FB7B1343FB733B7B9B09DBB29B0033
:10295C00DBB203F00403DAB2FB7B1343FB733B7B68
:10296C005B09DBB25B00DBB203F00203DAB2FB7B88
:10297C001343FB733B7B1B09DBB203F00103DAB29D
:10298C00FB7B1343FB73FB7B18461437BD4680BCA3
:10299C00704700BF180300202003002028030020EC
:1029AC0080B485B000AF0346FB71FB79C3F10C0317
:1029BC00DA0F13445B10FB73FB7903F00103002B5C
:1029CC000CBF01230023DBB2BB73FB7B0A4AD35C35
:1029DC007B73BB7B002B06D07B7B9B08DBB203F0AD
:1029EC000303DBB202E07B7B9B09DBB21846143796
:1029FC00BD4680BC704700BF2003002080B485B06A
:102A0C0000AF0346FB71FB793F2B01D13D231CE04A
:102A1C00FB791F2B01D15F2317E0FB791F2B0BD800
:102A2C00FB7943F04003FB73FB7B402B04D9FB7B0E
:102A3C005A2B01D8FB7B08E0FB791F2B04D9FB79BF
:102A4C007E2B01D8FB7900E03F2318461437BD4696
:102A5C0080BC704790B585B000AF786039600023BA
:102A6C00FB6034E0FB68DBB20133BB72BB7A184607
:102A7C00FFF7D2FE0346FB72FB7A3F2B01D13D23BD
:102A8C00FB72FB687A68D418FB7A1846FFF7B6FF1E
:102A9C0003462370BB7A1846FFF782FF03467B720E
:102AAC007B7A012B0BD07B7A022B06D07B7A032B03
:102ABC0001D12C2304E0202302E03A2300E02E2352
:102ACC00FA6839680A441370FB680133FB60FB68D1
:102ADC000B2BC7DD7B680C3300221A703B680C3360
:102AEC0000221A7000BF1437BD4690BD80B485B06B
:102AFC0000AF0346FB71FB79C3F10C03DA0F1344EF
:102B0C005B10BB73FB7903F00103002B0CBF01239B
:102B1C000023DBB27B73BB7B534AD35C3B73BB7B25
:102B2C00524AD35CFB72BB7B514AD35CBB72002311
:102B3C00FB737B7B002B45D0BB7A9B01DBB203F094
:102B4C004003DAB2FB7B1343FB73FB7A5B01DBB212
:102B5C0003F02003DAB2FB7B1343FB73FB7A5B08B5
:102B6C00DBB21B01DBB203F01003DAB2FB7B1343C5
:102B7C00FB733B7BDB08DBB2DB00DBB203F008034F
:102B8C00DAB2FB7B1343FB733B7B9B08DBB29B00F2
:102B9C00DBB203F00403DAB2FB7B1343FB733B7B26
:102BAC005B08DBB25B00DBB203F00203DAB2FB7B47
:102BBC001343FB733B7B03F00103DAB2FB7B134340
:102BCC00FB734AE0BB7A1B09DBB29B01DBB203F05F
:102BDC004003DAB2FB7B1343FB73FB7A1B09DBB2BA
:102BEC005B01DBB203F02003DAB2FB7B1343FB7314
:102BFC00FB7A5B09DBB21B01DBB203F01003DAB228
:102C0C00FB7B1343FB733B7BDB09DBB2DB00DBB2EF
:102C1C0003F00803DAB2FB7B1343FB733B7B9B098A
:102C2C00DBB29B00DBB203F00403DAB2FB7B134391
:102C3C00FB733B7B5B09DBB25B00DBB203F0020393
:102C4C00DAB2FB7B1343FB733B7B1B09DBB203F058
:102C5C000103DAB2FB7B1343FB73FB7B184614377F
:102C6C00BD4680BC704700BF180300202003002025
:102C7C002803002080B582B000AF0C4B5B690B4A77
:102C8C0043F001035361094B5B6903F001037B6063
:102C9C007B68002203210D2000F0C9FC0D2000F000
:102CAC00E2FC00BF0837BD4680BD00BF00100240EB
:102CBC0080B58AB000AF07F1180300221A605A6081
:102CCC009A60DA607B4B9B697A4A43F010039361FC
:102CDC00784B9B6903F010037B617B69754B9B6997
:102CEC00744A43F020039361724B9B6903F02003F9
:102CFC003B613B696F4B9B696E4A43F004039361E4
:102D0C006C4B9B6903F00403FB60FB68694B9B698C
:102D1C00684A43F008039361664B9B6903F0080310
:102D2C00BB60BB68634BDB69624A43F00203D3614F
:102D3C00604BDB6903F002037B607B685D4B9B6936
:102D4C005C4A43F0010393615A4B9B6903F0010306
:102D5C003B603B6800224FF40051574800F099FF4C
:102D6C004FF40053BB610123FB6100233B62022340
:102D7C007B6207F1180319464F4800F0EFFD4FF442
:102D8C008063BB6100233B620123FB6102237B62F6
:102D9C0007F118031946494800F0E0FD4FF40063B1
:102DAC00BB61474BFB6100233B6207F118031946DB
:102DBC00424800F0D3FD0223BB610023FB610023DA
:102DCC003B6207F1180319463C4800F0C7FD4FF46D
:102DDC000043BB610023FB6100233B6207F1180336
:102DEC001946364800F0BAFD4FF48053BB610023FE
:102DFC00FB6100233B6207F1180319462F4800F0D2
:102E0C00ADFD4FF48043BB610023FB6100233B62AB
:102E1C0007F118031946294800F0A0FD0823BB61EF
:102E2C000123FB6101233B6203237B6207F118033F
:102E3C001946224800F092FD1023BB610123FB616F
:102E4C0000233B6203237B6207F1180319461B48DE
:102E5C0000F084FD2023BB610123FB6100233B6256
:102E6C0003237B6207F118031946144800F076FD22
:102E7C000123BB610023FB6101233B6202237B62C4
:102E8C0007F1180319460D4800F068FD00220121D6
:102E9C00282000F0CCFB282000F0E5FB00220221CA
:102EAC001D2000F0C4FB1D2000F0DDFB00BF283707
:102EBC00BD4680BD0010024000100140000C0140D6
:102ECC000000111080B500AF00F054FA00F07CF84F
:102EDC00FFF7EEFEFFF7CEFE00F0C0F8FFF7F2FBB7
:102EEC000C211B4802F0D4F801220821194800F0EB
:102EFC00D0FE00221021174800F0CBFE01224FF427
:102F0C008061144800F0C5FEFDF7A2FFFDF7D4FC6C
:102F1C00FEF77AF80A20FEF7A5FDFEF7B7F9FEF7E3
:102F2C0069FFFEF7B3F90C4B4FF400625A6100F0E5
:102F3C0017F8FEF7ABF94FF40051084800F0C1FE4A
:102F4C00FDF72CF9FDF722FBFDF7E0FAF3E700BFE4
:102F5C0010040020000C014000040140001001404E
:102F6C0080B582B000AF154B00221A60144B0022C2
:102F7C001A60144B00221A6000F054FA786004E0D6
:102F8C000E4B1B6801330D4A136000F04BFA0246DE
:102F9C007B68D31AB3F57A7FF2D3084B1B68084AC7
:102FAC001360084B01221A60FDF786FB4FF4FA60A0
:102FBC0000F042FA00BF0837BD4680BD580400201F
:102FCC005C0400206004002080B590B000AF07F1D5
:102FDC00180328220021184602F0C6FE3B1D0022D1
:102FEC001A605A609A60DA601A610123BB614FF46F
:102FFC008033FB6100233B620123BB6202237B63B2
:10300C004FF48033BB634FF4E013FB6307F11803F9
:10301C00184600F087FE0346002B01D000F019F88B
:10302C000F237B600223BB600023FB604FF48063A3
:10303C003B6100237B613B1D0221184601F0F4F833
:10304C000346002B01D000F004F800BF4037BD460A
:10305C0080BD80B400AF72B600BFFEE780B500AF94
:10306C00174B184A1A60164B4FF482725A60144B65
:10307C0000229A60124B0022DA60114B02221A6174
:10308C000F4B01225A610E4B4FF400729A610C4B9C
:10309C001022DA610A4B00221A62094B00225A6292
:1030AC00074B00229A62064B0A22DA62044801F0AE
:1030BC002BFA0346002B01D0FFF7CBFF00BF80BDDE
:1030CC00640400200030014080B588B000AF786007
:1030DC0007F1100300221A605A609A60DA607B686C
:1030EC001B683E4A934275D13D4B9B693C4A43F465
:1030FC00805393613A4B9B6903F48053FB60FB68EC
:10310C00374B9B69364A43F004039361344B9B69FC
:10311C0003F00403BB60BB6820233B6102237B618B
:10312C000023BB610323FB6107F1100319462D48F3
:10313C0000F014FC40233B6100237B610123BB6145
:10314C000323FB6107F110031946264800F006FC27
:10315C0080233B6102237B610023BB610323FB6162
:10316C0007F1100319461F4800F0F8FB10233B61D0
:10317C0001237B610023BB610323FB6107F1100377
:10318C001946184800F0EAFB174B184A1A60164B00
:10319C0010225A60144B00229A60134B8022DA6082
:1031AC00114B00221A61104B00225A610E4B002267
:1031BC009A610D4B0022DA610B4800F06FFA03465E
:1031CC00002B01D0FFF745FF7B68074A9A64064A3B
:1031DC007B68536200BF2037BD4680BD0030014084
:1031EC000010024000080140BC04002030000240E6
:1031FC0080B485B000AF154B9B69144A43F00103B2
:10320C009361124B9B6903F00103BB60BB680F4BCE
:10321C00DB690E4A43F08053D3610C4BDB6903F03E
:10322C0080537B607B680A4B5B68FB60FB6823F018
:10323C00E063FB60FB6843F00073FB60044AFB68CF
:10324C00536000BF1437BD4680BC7047001002406D
:10325C000000014080B400AFFEE780B400AFFEE791
:10326C0080B400AFFEE780B400AFFEE780B400AFDF
:10327C00FEE780B400AF00BFBD4680BC704780B491
:10328C0000AF00BFBD4680BC704780B400AF00BF2C
:10329C00BD4680BC704780B500AF00F0B1F800BFF0
:1032AC0080BD000080B500AF024800F051FA00BFAD
:1032BC0080BD00BFBC04002080B400AF00BFBD4681
:1032CC0080BC704780B400AF00BFBD4680BC704767
:1032DC0080B500AF4FF4006000F00CFD4FF40061BE
:1032EC00044800F0BFFC03461A46034B1A7000BF9B
:1032FC0080BD00BF000C0140F002002080B586B0FC
:10330C0000AF7860144A154BD31A7B617B693B6123
:10331C00134B1B68002B02D1114B124A1A60104B35
:10332C001A687B6813443A699A4207D202F048FD46
:10333C0003460C221A604FF0FF3309E0084B1B6860
:10334C00FB60074B1A687B681344054A1360FB68E3
:10335C0018461837BD4680BD005000200004000000
:10336C00000500205006002080B400AF00BFBD4611
:10337C0080BC704780B500AF084B1B68074A43F010
:10338C0010031360032000F047F90F2000F008F839
:10339C00FFF72EFF0023184680BD00BF002002401F
:1033AC0080B582B000AF7860124B1A68124B1B7854
:1033BC0019464FF47A73B3FBF1F3B2FBF3F31846EF
:1033CC0000F05FF90346002B01D001230EE07B686F
:1033DC000F2B0AD8002279684FF0FF3000F027F944
:1033EC00064A7B681360002300E001231846083767
:1033FC00BD4680BD6C0000207400002070000020D1
:10340C0080B400AF054B1B781A46054B1B68134460
:10341C00034A136000BFBD4680BC70477400002097
:10342C000405002080B400AF024B1B681846BD4653
:10343C0080BC70470405002080B584B000AF786074
:10344C00FFF7F0FFB8607B68FB60FB68B3F1FF3FF0
:10345C0005D00A4B1B781A46FB681344FB6000BF6F
:10346C00FFF7E0FF0246BB68D31AFA689A42F7D816
:10347C0000BF00BF1037BD4680BD00BF74000020E8
:10348C0080B485B000AF78607B6803F00703FB6005
:10349C000C4BDB68BB60BA684FF6FF031340BB6094
:1034AC00FB681A02BB68134343F0BF6343F4003359
:1034BC00BB60044ABB68D36000BF1437BD4680BCF8
:1034CC00704700BF00ED00E080B400AF044BDB6838
:1034DC001B0A03F007031846BD4680BC704700BFAB
:1034EC0000ED00E080B483B000AF0346FB7197F9A8
:1034FC000730002B0BDBFB7903F01F02064997F911
:10350C0007305B09012000FA02F241F8232000BFCA
:10351C000C37BD4680BC704700E100E080B483B03E
:10352C0000AF03463960FB7197F90730002B0ADBBB
:10353C003B68DAB20C4997F907301201D2B20B444E
:10354C0083F800230AE03B68DAB20849FB7903F000
:10355C000F03043B1201D2B20B441A7600BF0C3796
:10356C00BD4680BC704700BF00E100E000ED00E00C
:10357C0080B489B000AFF860B9607A60FB6803F082
:10358C000703FB61FB69C3F10703042B28BF04236A
:10359C00BB61FB690433062B02D9FB69033B00E0DA
:1035AC0000237B614FF0FF32BB6902FA03F3DA436D
:1035BC00BB681A407B699A404FF0FF317B6901FA76
:1035CC0003F3D9437B680B40134318462437BD469D
:1035DC0080BC704780B582B000AF78607B68013BDF
:1035EC00B3F1807F01D301230FE00A4A7B68013BD2
:1035FC0053600F214FF0FF30FFF790FF054B002277
:10360C009A60044B07221A60002318460837BD46FF
:10361C0080BD00BF10E000E080B582B000AF7860E4
:10362C007868FFF72DFF00BF0837BD4680BD80B519
:10363C0086B000AF0346B9607A60FB7300237B61F0
:10364C00FFF742FF78617A68B9687869FFF790FFF5
:10365C00024697F90F3011461846FFF75FFF00BF7F
:10366C001837BD4680BD80B582B000AF0346FB71F4
:10367C0097F907301846FFF735FF00BF0837BD46EE
:10368C0080BD80B582B000AF78607868FFF7A2FF8C
:10369C00034618460837BD4680BD000080B485B08F
:1036AC0000AF78600023FB607B68002B01D1012305
:1036BC0043E07B681B681A46224B1344224AA2FB48
:1036CC0003231B099A007B681A647B681F4ADA6320
:1036DC007B68022283F821207B681B681B68FB60D7
:1036EC00FB6823F47F5323F03003FB607B685A683C
:1036FC007B689B681A437B68DB681A437B681B6991
:10370C001A437B685B691A437B689B691A437B6825
:10371C00DB691343FA681343FB607B681B68FA6828
:10372C001A607B6800229A637B68012283F821204F
:10373C007B68002283F82020002318461437BD46EE
:10374C0080BC7047F8FFFDBFCDCCCCCC0000024054
:10375C0080B584B000AF78607B68DB6B1B68FB6066
:10376C007B681B681B68BB607B681B6C04229A40DF
:10377C00FB681340002B4FD0BB6803F00403002BF5
:10378C004AD07B681B681B6803F02003002B07D111
:10379C007B681B681A687B681B6822F004021A603D
:1037AC007B681B68664A934229D07B681B68654A14
:1037BC00934222D07B681B68634A93421AD07B6881
:1037CC001B68624A934212D07B681B68604A934222
:1037DC000AD07B681B685F4A934202D14FF4800386
:1037EC000EE04FF080630BE04FF4802308E04FF4C1
:1037FC00804305E04FF4806302E0402300E00423A3
:10380C00554A53607B68DB6A002B00F094807B6820
:10381C00DB6A786898478EE07B681B6C02229A40C2
:10382C00FB681340002B56D0BB6803F00203002B3F
:10383C0051D07B681B681B6803F02003002B0BD155
:10384C007B681B681A687B681B6822F00A021A6086
:10385C007B68012283F821207B681B68384A9342DD
:10386C0029D07B681B68374A934222D07B681B683F
:10387C00354A93421AD07B681B68344A934212D063
:10388C007B681B68324A93420AD07B681B68314ABA
:10389C00934202D14FF400130EE04FF000730BE093
:1038AC004FF4003308E04FF4005305E04FF400737D
:1038BC0002E0202300E00223274A53607B680022A9
:1038CC0083F820207B689B6A002B34D07B689B6A32
:1038DC00786898472FE07B681B6C08229A40FB683D
:1038EC001340002B28D0BB6803F00803002B23D017
:1038FC007B681B681A687B681B6822F00E021A60D2
:10390C007B681A6C7B68DB6B012101FA02F25A604E
:10391C007B6801229A637B68012283F821207B68F3
:10392C00002283F820207B681B6B002B04D07B6863
:10393C001B6B7868984700BF00BF1037BD4680BD31
:10394C00080002401C0002403000024044000240CB
:10395C00580002406C0002400000024080B48BB062
:10396C0000AF7860396000237B6200233B6269E121
:10397C0001227B6A02FA03F3FB613B681B68FA695C
:10398C001340BB61BA69FB699A4240F058813B68AD
:10399C005B689A4A93425ED0984A934275D8984A8B
:1039AC00934258D0964A93426FD8964A934252D03B
:1039BC00944A934269D8944A93424CD0924A934287
:1039CC0063D8924A934246D0904A93425DD8122BC8
:1039DC002AD8122B59D801A252F823F0633A0008C6
:1039EC003D3A00084F3A0008913A0008973A00080F
:1039FC00973A0008973A0008973A0008973A000857
:103A0C00973A0008973A0008973A0008973A000846
:103A1C00973A0008973A0008973A0008973A000836
:103A2C00453A0008593A0008794A934213D02CE0E1
:103A3C003B68DB683B6229E03B68DB6804333B6234
:103A4C0024E03B68DB6808333B621FE03B68DB68C3
:103A5C000C333B621AE03B689B68002B02D10423B9
:103A6C003B6213E03B689B68012B05D108233B624A
:103A7C007B68FA691A6109E008233B627B68FA6982
:103A8C005A6103E000233B6200E000BFBB69FF2BDF
:103A9C0001D87B6801E07B6804337B61BB69FF2B39
:103AAC0002D87B6A9B0002E07B6A083B9B003B616F
:103ABC007B691A680F213B6901FA03F3DB431A4057
:103ACC00396A3B6901FA03F31A437B691A603B6854
:103ADC005B6803F08053002B00F0B1804D4B9B6969
:103AEC004C4A43F0010393614A4B9B6903F0010379
:103AFC00BB60BB68484A7B6A9B08023352F8233090
:103B0C00FB607B6A03F003039B000F2202FA03F3B2
:103B1C00DB43FA681340FB607B68404A934213D046
:103B2C007B683F4A93420DD07B683E4A934207D054
:103B3C007B683D4A934201D1032306E0042304E051
:103B4C00022302E0012300E000237A6A02F0030260
:103B5C0092009340FA681343FB602F497B6A9B08E1
:103B6C000233FA6841F823203B685B6803F4803326
:103B7C00002B06D02D4B1A682C49BB6913430B60E4
:103B8C0006E02A4B1A68BB69DB43284913400B60DB
:103B9C003B685B6803F40033002B06D0234B5A6858
:103BAC002249BB6913434B6006E0204B5A68BB6942
:103BBC00DB431E4913404B603B685B6803F4801386
:103BCC00002B06D0194B9A681849BB6913438B60BC
:103BDC0006E0164B9A68BB69DB43144913408B60B3
:103BEC003B685B6803F40013002B21D00F4BDA68A1
:103BFC000E49BB691343CB6021E000BF00003210BB
:103C0C0000003110000022100000211000001210E2
:103C1C00000011100010024000000140000801409B
:103C2C00000C014000100140001401400004014050
:103C3C000B4BDA68BB69DB4309491340CB607B6AE9
:103C4C0001337B623B681A687B6A22FA03F3002B10
:103C5C007FF48EAE00BF00BF2C37BD4680BC7047D2
:103C6C000004014080B485B000AF78600B467B80C7
:103C7C007B689A687B881340002B02D00123FB736E
:103C8C0001E00023FB73FB7B18461437BD4680BC58
:103C9C00704780B483B000AF78600B467B801346CE
:103CAC007B707B78002B03D07A887B681A6103E0E9
:103CBC007B881A047B681A6100BF0C37BD4680BC38
:103CCC00704780B485B000AF78600B467B807B6812
:103CDC00DB68FB607A88FB6813401A04FB68D943E5
:103CEC007B880B401A437B681A6100BF1437BD46B2
:103CFC0080BC704780B582B000AF0346FB80084B98
:103D0C005A69FB881340002B06D0054AFB88536187
:103D1C00FB881846FEF748FD00BF0837BD4680BD3E
:103D2C000004014080B586B000AF78607B68002B42
:103D3C0001D1012372E27B681B6803F00103002BA5
:103D4C0000F08780924B5B6803F00C03042B0CD0C3
:103D5C008F4B5B6803F00C03082B12D18C4B5B6808
:103D6C0003F48033B3F5803F0BD1894B1B6803F40C
:103D7C000033002B6CD07B685B68002B68D101236F
:103D8C004CE27B685B68B3F5803F06D1804B1B68C7
:103D9C007F4A43F4803313602EE07B685B68002B12
:103DAC000CD17B4B1B687A4A23F480331360784B1D
:103DBC001B68774A23F4802313601DE07B685B68E3
:103DCC00B3F5A02F0CD1724B1B68714A43F48023BE
:103DDC0013606F4B1B686E4A43F4803313600BE027
:103DEC006B4B1B686A4A23F480331360684B1B6867
:103DFC00674A23F4802313607B685B68002B13D025
:103E0C00FFF710FB386108E0FFF70CFB02463B693B
:103E1C00D31A642B01D9032300E25D4B1B6803F416
:103E2C000033002BF0D014E0FFF7FCFA386108E007
:103E3C00FFF7F8FA02463B69D31A642B01D9032326
:103E4C00ECE1534B1B6803F40033002BF0D100E082
:103E5C0000BF7B681B6803F00203002B63D04C4B44
:103E6C005B6803F00C03002B0BD0494B5B6803F031
:103E7C000C03082B1CD1464B5B6803F48033002BDE
:103E8C0016D1434B1B6803F00203002B05D07B6853
:103E9C001B69012B01D00123C0E13D4B1B6823F0B2
:103EAC00F8027B685B69DB00394913430B603AE02D
:103EBC007B681B69002B20D0364B01221A60FFF760
:103ECC00B1FA386108E0FFF7ADFA02463B69D31A44
:103EDC00022B01D90323A1E12D4B1B6803F0020334
:103EEC00002BF0D02A4B1B6823F0F8027B685B692F
:103EFC00DB00274913430B6015E0264B00221A60A8
:103F0C00FFF790FA386108E0FFF78CFA02463B693C
:103F1C00D31A022B01D9032380E11D4B1B6803F03C
:103F2C000203002BF0D17B681B6803F00803002B05
:103F3C003AD07B689B69002B19D0174B01221A6071
:103F4C00FFF770FA386108E0FFF76CFA02463B693C
:103F5C00D31A022B01D9032360E10D4B5B6A03F0EA
:103F6C000203002BF0D0012000F0B0FA1CE00A4B49
:103F7C0000221A60FFF756FA38610FE0FFF752FA89
:103F8C0002463B69D31A022B08D9032346E100BF32
:103F9C00001002400000424280044242924B5B6A95
:103FAC0003F00203002BE9D17B681B6803F00403C8
:103FBC00002B00F0A6800023FB758B4BDB6903F014
:103FCC008053002B0DD1884BDB69874A43F080531B
:103FDC00D361854BDB6903F08053BB60BB68012365
:103FEC00FB75824B1B6803F48073002B18D17F4B3D
:103FFC001B687E4A43F480731360FFF713FA386131
:10400C0008E0FFF70FFA02463B69D31A642B01D97B
:10401C00032303E1754B1B6803F48073002BF0D072
:10402C007B68DB68012B06D16F4B1B6A6E4A43F031
:10403C00010313622DE07B68DB68002B0CD16A4B0B
:10404C001B6A694A23F001031362674B1B6A664AB9
:10405C0023F0040313621CE07B68DB68052B0CD196
:10406C00614B1B6A604A43F0040313625E4B1B6A8C
:10407C005D4A43F0010313620BE05B4B1B6A5A4A27
:10408C0023F001031362584B1B6A574A23F00403B5
:10409C0013627B68DB68002B15D0FFF7C3F938611E
:1040AC000AE0FFF7BFF902463B69D31A41F28832A6
:1040BC00934201D90323B1E04B4B1B6A03F002037B
:1040CC00002BEED014E0FFF7ADF938610AE0FFF7F2
:1040DC00A9F902463B69D31A41F28832934201D9BD
:1040EC0003239BE0404B1B6A03F00203002BEED131
:1040FC00FB7D012B05D13C4BDB693B4A23F0805304
:10410C00D3617B68DB69002B00F08780364B5B68E2
:10411C0003F00C03082B61D07B68DB69022B46D1C2
:10412C00334B00221A60FFF77DF9386108E0FFF786
:10413C0079F902463B69D31A022B01D903236DE0AE
:10414C00294B1B6803F00073002BF0D17B681B6AB2
:10415C00B3F5803F08D1244B5B6823F400327B68B5
:10416C009B68214913434B601F4B5B6823F474120B
:10417C007B68196A7B685B6A0B431B4913434B6072
:10418C001B4B01221A60FFF74DF9386108E0FFF76D
:10419C0049F902463B69D31A022B01D903233DE0AE
:1041AC00114B1B6803F00073002BF0D035E0104B63
:1041BC0000221A60FFF736F9386108E0FFF732F990
:1041CC0002463B69D31A022B01D9032326E0064B86
:1041DC001B6803F00073002BF0D11EE07B68DB69D9
:1041EC00012B07D1012319E00010024000700040A0
:1041FC00600042420B4B5B68FB60FB6803F480324F
:10420C007B681B6A9A4206D1FB6803F470127B68C8
:10421C005B6A9A4201D0012300E00023184618374C
:10422C00BD4680BD0010024080B584B000AF786000
:10423C0039607B68002B01D10123D0E06A4B1B68ED
:10424C0003F007033A689A4210D9674B1B6823F0B6
:10425C00070265493B6813430B60634B1B6803F013
:10426C0007033A689A4201D00123B8E07B681B68C7
:10427C0003F00203002B20D07B681B6803F00403BF
:10428C00002B05D0594B5B68584A43F4E0635360EC
:10429C007B681B6803F00803002B05D0534B5B684D
:1042AC00524A43F460535360504B5B6823F0F00266
:1042BC007B689B684D4913434B607B681B6803F01C
:1042CC000103002B40D07B685B68012B07D1474B67
:1042DC001B6803F40033002B15D101237FE07B68AE
:1042EC005B68022B07D1414B1B6803F00073002B5A
:1042FC0009D1012373E03D4B1B6803F00203002B33
:10430C0001D101236BE0394B5B6823F003027B681E
:10431C005B68364913434B60FFF784F8F8600AE09A
:10432C00FFF780F80246FB68D31A41F288329342B9
:10433C0001D9032353E02D4B5B6803F00C027B681F
:10434C005B689B009A42EBD1274B1B6803F0070379
:10435C003A689A4210D2244B1B6823F00702224978
:10436C003B6813430B60204B1B6803F007033A6850
:10437C009A4201D0012332E07B681B6803F00403EE
:10438C00002B08D0194B5B6823F4E0627B68DB6878
:10439C00164913434B607B681B6803F00803002B22
:1043AC0009D0124B5B6823F460527B681B69DB00FD
:1043BC000E4913434B6000F021F802460B4B5B682F
:1043CC001B0903F00F030A49CB5C22FA03F3094AD9
:1043DC001360094B1B681846FEF7E2FF00231846D2
:1043EC001037BD4680BD00BF0020024000100240C7
:1043FC00846900086C0000207000002090B48AB022
:10440C0000AF294B3C1D0FCB84E80F0040F2012379
:10441C003B800023FB610023BB6100237B620023F4
:10442C007B6100233B62214B5B68FB61FB6903F002
:10443C000C03042B02D0082B03D02BE01C4B3B624B
:10444C002BE0FB699B0C03F00F0328333B4413F860
:10445C00243C7B61FB6903F48033002B12D0134B9B
:10446C005B685B0C03F0010328333B4413F8283CD6
:10447C00BB617B690E4A03FB02F2BB69B2FBF3F32F
:10448C007B6204E07B690B4A02FB03F37B627B6A71
:10449C003B6202E0064B3B6200BF3B6A1846283782
:1044AC00BD4690BC704700BFD468000800100240A5
:1044BC0000127A0000093D0080B400AF024B1B686B
:1044CC001846BD4680BC70476C00002080B485B097
:1044DC0000AF78600A4B1B680A4AA2FB03235B0AF5
:1044EC007A6802FB03F3FB6000BFFB685A1EFA609C
:1044FC00002BF9D100BF00BF1437BD4680BC7047FC
:10450C006C000020D34D621080B582B000AF786093
:10451C007B68002B01D1012376E07B685B6A002B62
:10452C0008D17B685B68B3F5827F09D07B68002279
:10453C00DA6105E07B6800221A617B6800225A610F
:10454C007B6800229A627B6893F85130DBB2002BB7
:10455C0006D17B68002283F850207868FEF7B4FD02
:10456C007B68022283F851207B681B681A687B6881
:10457C001B6822F040021A607B685B6803F482724D
:10458C007B689B6803F404431A437B68DB6803F481
:10459C0000631A437B681B6903F002031A437B68B0
:1045AC005B6903F001031A437B689B6903F4007396
:1045BC001A437B68DB6903F038031A437B681B6A78
:1045CC0003F0800342EA03017B689B6A03F4005208
:1045DC007B681B680A431A607B689B691A0C7B68B2
:1045EC001B6802F004025A607B681B68DA697B68FE
:1045FC001B6822F40062DA617B6800225A657B68D2
:10460C00012283F85120002318460837BD4680BD8F
:10461C0080B588B000AFF860B9603B601346FB8092
:10462C000023FB77FB6893F85030012B01D1022358
:10463C0026E1FB68012283F85020FEF7F3FEB861F7
:10464C00FB88FB82FB6893F85130DBB2012B02D064
:10465C000223FB770BE1BB68002B02D0FB88002BFD
:10466C0002D10123FB7702E1FB68032283F851207E
:10467C00FB6800225A65FB68BA681A63FB68FA8803
:10468C009A86FB68FA88DA86FB6800229A63FB68D4
:10469C0000229A87FB680022DA87FB6800225A64A2
:1046AC00FB6800221A64FB689B68B3F5004F0FD1BE
:1046BC00FB681B681A68FB681B6822F040021A60D2
:1046CC00FB681B681A68FB681B6842F480421A601E
:1046DC00FB681B681B6803F04003402B07D0FB688A
:1046EC001B681A68FB681B6842F040021A60FB6882
:1046FC00DB68B3F5006F4BD1FB685B68002B02D015
:10470C00FB8A012B3ED1FB681B6B1A88FB681B686C
:10471C00DA60FB681B6B9A1CFB681A63FB68DB8E08
:10472C009BB2013B9AB2FB68DA862BE0FB681B68F4
:10473C009B6803F00203022B12D1FB681B6B1A88D7
:10474C00FB681B68DA60FB681B6B9A1CFB681A63BE
:10475C00FB68DB8E9BB2013B9AB2FB68DA8611E0F8
:10476C00FEF760FE0246BB69D31A3A689A4203D838
:10477C003B68B3F1FF3F02D13B68002B02D103230E
:10478C00FB7774E0FB68DB8E9BB2002BCED14CE048
:10479C00FB685B68002B02D0FB8A012B40D1FB68C5
:1047AC001A6BFB681B680C3312781A70FB681B6B56
:1047BC005A1CFB681A63FB68DB8E9BB2013B9AB2F6
:1047CC00FB68DA862CE0FB681B689B6803F002032D
:1047DC00022B13D1FB681A6BFB681B680C33127825
:1047EC001A70FB681B6B5A1CFB681A63FB68DB8E28
:1047FC009BB2013B9AB2FB68DA8611E0FEF712FE1F
:10480C000246BB69D31A3A689A4203D83B68B3F1A3
:10481C00FF3F02D13B68002B02D10323FB7726E03C
:10482C00FB68DB8E9BB2002BCDD1BA693968F86876
:10483C0000F0B8FB0346002B02D0FB6820225A651F
:10484C00FB689B68002B0AD100233B61FB681B684B
:10485C00DB683B61FB681B689B683B613B69FB68E1
:10486C005B6D002B02D00123FB7700E000BFFB68DF
:10487C00012283F85120FB68002283F85020FB7F33
:10488C0018462037BD4680BD80B588B002AFF860B1
:10489C00B9603B601346FB800023FB75FB685B68CB
:1048AC00B3F5827F12D1FB689B68002B0ED1FB689D
:1048BC00042283F85120FA883B6800931346BA68A7
:1048CC00B968F86800F0F1F80346EAE0FB6893F881
:1048DC005030012B01D10223E3E0FB68012283F865
:1048EC005020FEF79FFD3861FB6893F85130DBB226
:1048FC00012B02D00223FB75CAE0BB68002B02D04F
:10490C00FB88002B02D10123FB75C1E0FB6804225C
:10491C0083F85120FB6800225A65FB68BA689A63D9
:10492C00FB68FA889A87FB68FA88DA87FB680022AA
:10493C001A63FB6800229A86FB680022DA86FB6801
:10494C0000221A64FB6800225A64FB689B68B3F56A
:10495C00004F0FD1FB681B681A68FB681B6822F0BC
:10496C0040021A60FB681B681A68FB681B6822F41B
:10497C0080421A60FB681B681B6803F04003402BE5
:10498C0007D0FB681B681A68FB681B6842F0400282
:10499C001A60FB68DB68002B62D12EE0FB681B6899
:1049AC009B6803F00103012B15D1FB681B6803F115
:1049BC000C02FB689B6B1278D2B21A70FB689B6B73
:1049CC005A1CFB689A63FB68DB8F9BB2013B9AB263
:1049DC00FB68DA8711E0FEF725FD02463B69D31A26
:1049EC003A689A4203D83B68B3F1FF3F02D13B6867
:1049FC00002B02D10323FB754AE0FB68DB8F9BB2D3
:104A0C00002BCBD131E0FB681B689B6803F00103E2
:104A1C00012B13D1FB681B68DA68FB689B6B92B2A5
:104A2C001A80FB689B6B9A1CFB689A63FB68DB8F94
:104A3C009BB2013B9AB2FB68DA8711E0FEF7F2FCFD
:104A4C0002463B69D31A3A689A4203D83B68B3F1E1
:104A5C00FF3F02D13B68002B02D10323FB7517E00B
:104A6C00FB68DB8F9BB2002BCDD13A693968F868B3
:104A7C0000F046FA0346002B02D0FB6820225A6550
:104A8C00FB685B6D002B02D00123FB7500E000BFBF
:104A9C00FB68012283F85120FB68002283F8502028
:104AAC00FB7D18461837BD4680BD80B58CB000AF75
:104ABC00F860B9607A607B800123FB62002387F881
:104ACC002B30FB6893F85030012B01D102238AE183
:104ADC00FB68012283F85020FEF7A4FC7862FB6887
:104AEC0093F8513087F82330FB685B68FB617B8857
:104AFC007B8397F82330012B0FD0FB69B3F5827FB2
:104B0C0007D1FB689B68002B03D197F82330042B4B
:104B1C0003D0022387F82B305BE1BB68002B05D058
:104B2C007B68002B02D07B88002B03D1012387F8F4
:104B3C002B304EE1FB6893F85130DBB2042B03D0E1
:104B4C00FB68052283F85120FB6800225A65FB683C
:104B5C007A689A63FB687A88DA87FB687A889A871E
:104B6C00FB68BA681A63FB687A88DA86FB687A880D
:104B7C009A86FB6800221A64FB6800225A64FB6860
:104B8C001B681B6803F04003402B07D0FB681B68B5
:104B9C001A68FB681B6842F040021A60FB68DB680D
:104BAC00B3F5006F78D1FB685B68002B02D07B8B70
:104BBC00012B66D1FB681B6B1A88FB681B68DA60DB
:104BCC00FB681B6B9A1CFB681A63FB68DB8E9BB241
:104BDC00013B9AB2FB68DA8653E0FB681B689B6862
:104BEC0003F00203022B1BD1FB68DB8E9BB2002B64
:104BFC0016D0FB6A012B13D1FB681B6B1A88FB6860
:104C0C001B68DA60FB681B6B9A1CFB681A63FB68F9
:104C1C00DB8E9BB2013B9AB2FB68DA860023FB6207
:104C2C00FB681B689B6803F00103012B19D1FB681F
:104C3C00DB8F9BB2002B14D0FB681B68DA68FB6817
:104C4C009B6B92B21A80FB689B6B9A1CFB689A63F5
:104C5C00FB68DB8F9BB2013B9AB2FB68DA870123BE
:104C6C00FB62FEF7DFFB02467B6AD31ABA6B9A42F1
:104C7C0007D8BB6BB3F1FF3F03D0032387F82B306E
:104C8C00A7E0FB68DB8E9BB2002BA6D1FB68DB8F09
:104C9C009BB2002BA1D17CE0FB685B68002B02D09F
:104CAC007B8B012B6BD1FB681A6BFB681B680C337D
:104CBC0012781A70FB681B6B5A1CFB681A63FB6832
:104CCC00DB8E9BB2013B9AB2FB68DA8657E0FB683D
:104CDC001B689B6803F00203022B1CD1FB68DB8E64
:104CEC009BB2002B17D0FB6A012B14D1FB681A6BFB
:104CFC00FB681B680C3312781A70FB681B6B5A1C10
:104D0C00FB681A63FB68DB8E9BB2013B9AB2FB68B3
:104D1C00DA860023FB62FB681B689B6803F00103C7
:104D2C00012B19D1FB68DB8F9BB2002B14D0FB68D5
:104D3C001B68DA68FB689B6BD2B21A70FB689B6BC2
:104D4C005A1CFB689A63FB68DB8F9BB2013B9AB2DF
:104D5C00FB68DA870123FB62FEF764FB02467B6A81
:104D6C00D31ABA6B9A4203D8BB6BB3F1FF3F02D193
:104D7C00BB6B002B03D1032387F82B3029E0FB6896
:104D8C00DB8E9BB2002BA2D1FB68DB8F9BB2002B7E
:104D9C009DD17A6AB96BF86800F004F90346002BD0
:104DAC0006D0012387F82B30FB6820225A6510E0CF
:104DBC00FB689B68002B0BD100237B61FB681B6895
:104DCC00DB687B61FB681B689B687B617B6900E02F
:104DDC0000BFFB68012283F85120FB68002283F896
:104DEC00502097F82B3018463037BD4680BD000058
:104DFC0080B588B000AFF860B9603B601346FB71BA
:104E0C00FEF710FB0246BB6A9B1A3A681344FB611F
:104E1C00FEF708FBB861394B1B685B011B0DFA6987
:104E2C0002FB03F37B6154E03B68B3F1FF3F50D0CE
:104E3C00FEF7F8FA0246BB69D31AFA699A4202D90C
:104E4C00FB69002B3DD1FB681B685A68FB681B682B
:104E5C0022F0E0025A60FB685B68B3F5827F11D1E7
:104E6C00FB689B68B3F5004F04D0FB689B68B3F5F7
:104E7C00806F07D1FB681B681A68FB681B6822F0FF
:104E8C0040021A60FB689B6AB3F5005F0FD1FB68A8
:104E9C001B681A68FB681B6822F400521A60FB68D6
:104EAC001B681A68FB681B6842F400521A60FB68A6
:104EBC00012283F85120FB68002283F85020032341
:104ECC0017E07B69002B01D10023FB617B69013B5F
:104EDC007B61FB681B689A68BB681340BA689A428E
:104EEC000CBF01230023DBB21A46FB799A429BD1FB
:104EFC00002318462037BD4680BD00BF6C00002043
:104F0C0080B586B002AFF860B9607A60FB685B6808
:104F1C00B3F5827F11D1FB689B68B3F5004F04D0C9
:104F2C00FB689B68B3F5806F07D1FB681B681A6838
:104F3C00FB681B6822F040021A60FB685B68B3F5E3
:104F4C00827F17D1FB689B68B3F5806F12D17B68A9
:104F5C000093BB6800220121F868FFF749FF034664
:104F6C00002B1AD0FB685B6D43F02002FB685A657E
:104F7C00032313E07B680093BB6800228021F86850
:104F8C00FFF736FF0346002B07D0FB685B6D43F041
:104F9C002002FB685A65032300E0002318461037F3
:104FAC00BD4680BD80B586B002AFF860B9607A604E
:104FBC007B680093BB6800228021F868FFF718FF1C
:104FCC000346002B07D0FB685B6D43F02002FB68A7
:104FDC005A65032300E0002318461037BD4680BDF8
:104FEC0080B582B000AF78607B68002B01D10123C3
:104FFC0041E07B6893F83D30DBB2002B06D17B6837
:10500C00002283F83C20786800F039F87B68022293
:10501C0083F83D207B681A687B6804331946104678
:10502C0000F0C0FB7B68012283F846207B680122DC
:10503C0083F83E207B68012283F83F207B680122A5
:10504C0083F840207B68012283F841207B68012291
:10505C0083F842207B68012283F843207B6801227D
:10506C0083F844207B68012283F845207B68012269
:10507C0083F83D20002318460837BD4680BD80B418
:10508C0083B000AF786000BF0C37BD4680BC704762
:10509C0080B584B000AF786039603B68002B04D1D8
:1050AC007B6893F83E30DBB213E03B68042B04D1F1
:1050BC007B6893F83F30DBB20BE03B68082B04D1E4
:1050CC007B6893F84030DBB203E07B6893F84130A7
:1050DC00DBB2FB733B68002B04D17B6893F8423046
:1050EC00DBB213E03B68042B04D17B6893F84330AC
:1050FC00DBB20BE03B68082B04D17B6893F844309F
:10510C00DBB203E07B6893F84530DBB2BB73FB7B0F
:10511C00012B02D1BB7B012B01D00123B3E03B68F7
:10512C00002B04D17B68022283F83E2013E03B68FD
:10513C00042B04D17B68022283F83F200BE03B68F0
:10514C00082B04D17B68022283F8402003E07B68A3
:10515C00022283F841203B68002B04D17B68022299
:10516C0083F8422013E03B68042B04D17B680222B5
:10517C0083F843200BE03B68082B04D17B680222A8
:10518C0083F8442003E07B68022283F845203B68C7
:10519C000C2B41D801A252F823F000BFDD510008BE
:1051AC00255200082552000825520008EF5100082E
:1051BC00255200082552000825520008015200080B
:1051CC0025520008255200082552000813520008E9
:1051DC007B681B68DA687B681B6842F00202DA6045
:1051EC001BE07B681B68DA687B681B6842F0040272
:1051FC00DA6012E07B681B68DA687B681B6842F037
:10520C000802DA6009E07B681B68DA687B681B6857
:10521C0042F01002DA6000E000BF7B681B680122DC
:10522C003968184600F0C3FC7B681B68184A934227
:10523C000ED07B681B68B3F1804F09D07B681B686C
:10524C00144A934204D07B681B68134A934211D1D1
:10525C007B681B689B6803F00703BB60BB68062B6D
:10526C0010D07B681B681A687B681B6842F00102CF
:10527C001A6007E07B681B681A687B681B6842F041
:10528C0001021A60002318461037BD4680BD00BFCE
:10529C00002C0140000400400008004080B582B0A2
:1052AC0000AF78607B681B681B6903F00203022B5C
:1052BC0022D17B681B68DB6803F00203022B1BD135
:1052CC007B681B686FF002021A617B6801221A77F7
:1052DC007B681B689B6903F00303002B03D0786881
:1052EC00FDF784FA05E0786800F041FA786800F080
:1052FC0047FA7B6800221A777B681B681B6903F0EE
:10530C000403042B22D17B681B68DB6803F00403C5
:10531C00042B1BD17B681B686FF004021A617B683D
:10532C0002221A777B681B689B6903F44073002B7D
:10533C0003D07868FDF75AFA05E0786800F017FAA0
:10534C00786800F01DFA7B6800221A777B681B686E
:10535C001B6903F00803082B22D17B681B68DB68F0
:10536C0003F00803082B1BD17B681B686FF0080245
:10537C001A617B6804221A777B681B68DB6903F06F
:10538C000303002B03D07868FDF730FA05E078684A
:10539C0000F0EDF9786800F0F3F97B6800221A77D9
:1053AC007B681B681B6903F01003102B22D17B68F0
:1053BC001B68DB6803F01003102B1BD17B681B6888
:1053CC006FF010021A617B6808221A777B681B68E1
:1053DC00DB6903F44073002B03D07868FDF706FA01
:1053EC0005E0786800F0C3F9786800F0C9F97B68CB
:1053FC0000221A777B681B681B6903F00103012BE1
:10540C000ED17B681B68DB6803F00103012B07D10D
:10541C007B681B686FF001021A61786800F09EF9D6
:10542C007B681B681B6903F08003802B0ED17B68A3
:10543C001B68DB6803F08003802B07D17B681B683B
:10544C006FF080021A61786800F03DFC7B681B6885
:10545C001B6903F04003402B0ED17B681B68DB6893
:10546C0003F04003402B07D17B681B686FF04002B0
:10547C001A61786800F08DF97B681B681B6903F072
:10548C002003202B0ED17B681B68DB6803F0200304
:10549C00202B07D17B681B686FF020021A6178689B
:1054AC0000F008FC00BF0837BD4680BD80B584B055
:1054BC0000AFF860B9607A60FB6893F83C30012B60
:1054CC0001D1022382E0FB68012283F83C207B6837
:1054DC00002B1BD1FB681868BB681968BB685A683D
:1054EC00BB68DB6800F0C0F9FB681B689A69FB6855
:1054FC001B6822F00C029A61FB681B689969BB68F7
:10550C009A68FB681B680A439A615AE07B68042B13
:10551C001CD1FB681868BB681968BB685A68BB6803
:10552C00DB6800F029FAFB681B689A69FB681B684A
:10553C0022F440629A61FB681B689969BB689B689E
:10554C001A02FB681B680A439A613AE07B68082BD5
:10555C001BD1FB681868BB681968BB685A68BB68C4
:10556C00DB6800F074FAFB681B68DA69FB681B687F
:10557C0022F00C02DA61FB681B68D969BB689A6877
:10558C00FB681B680A43DA611BE0FB681868BB68A0
:10559C001968BB685A68BB68DB6800F093FAFB6853
:1055AC001B68DA69FB681B6822F44062DA61FB68ED
:1055BC001B68D969BB689B681A02FB681B680A43A5
:1055CC00DA61FB68002283F83C2000231846103770
:1055DC00BD4680BD80B584B000AF786039607B6813
:1055EC0093F83C30012B01D10223B3E07B680122FC
:1055FC0083F83C207B68022283F83D207B681B6883
:10560C009B68FB60FB6823F07703FB60FB6823F46B
:10561C007F43FB607B681B68FA689A603B681B6879
:10562C00B3F5005F3ED0B3F5005F00F28780B3F5B1
:10563C00805F00F08580B3F5805F7FD8702B1AD027
:10564C00702B7BD8602B50D0602B77D8502B3CD054
:10565C00502B73D8402B58D0402B6FD8302B64D0A4
:10566C00302B6BD8202B60D0202B67D8002B5CD034
:10567C00102B5AD062E07B6818683B6899683B68CD
:10568C005A683B68DB6800F073FA7B681B689B68A0
:10569C00FB60FB6843F07703FB607B681B68FA6870
:1056AC009A604EE07B6818683B6899683B685A685A
:1056BC003B68DB6800F05CFA7B681B689A687B6867
:1056CC001B6842F480429A603BE07B6818683B6838
:1056DC0059683B68DB681A4600F020F97B681B6848
:1056EC005021184600F02AFA2BE07B6818683B68BA
:1056FC0059683B68DB681A4600F07AF97B681B68CE
:10570C006021184600F01AFA1BE07B6818683B68A9
:10571C0059683B68DB681A4600F000F97B681B6827
:10572C004021184600F00AFA0BE07B681A683B68C7
:10573C001B681946104600F001FA02E000BF00E0B9
:10574C0000BF7B68012283F83D207B68002283F830
:10575C003C20002318461037BD4680BD80B483B072
:10576C0000AF786000BF0C37BD4680BC704780B47A
:10577C0083B000AF786000BF0C37BD4680BC70476B
:10578C0080B483B000AF786000BF0C37BD4680BCDE
:10579C00704780B483B000AF786000BF0C37BD4653
:1057AC0080BC704780B485B000AF786039607B688E
:1057BC001B68FB607B68294A93420BD07B68B3F172
:1057CC00804F07D07B68264A934203D07B68254ADA
:1057DC00934208D1FB6823F07003FB603B685B6865
:1057EC00FA681343FB607B681C4A93420BD07B68BE
:1057FC00B3F1804F07D07B68194A934203D07B6882
:10580C00184A934208D1FB6823F44073FB603B6851
:10581C00DB68FA681343FB60FB6823F080023B688B
:10582C005B691343FB607B68FA681A603B689A6893
:10583C007B68DA623B681A687B689A627B68074A05
:10584C00934203D13B681A697B681A637B68012217
:10585C005A6100BF1437BD4680BC7047002C014014
:10586C00000400400008004080B487B000AFF8602E
:10587C00B9607A603B60FB681B6A23F00102FB682D
:10588C001A62FB689B697B61FB681B6A3B61FB6866
:10589C001F4A93420BD0FB68B3F1804F07D0FB68D3
:1058AC001C4A934203D0FB681B4A934201D101234B
:1058BC0000E00023002B08D07B6923F003037B61FD
:1058CC007A697B6813437B6103E07B6943F00103D6
:1058DC007B617B6923F0F0037B613B681B01DBB2CE
:1058EC007A6913437B613B6923F00A033B61BB6814
:1058FC0003F00A033A6913433B61FB687A699A61C6
:10590C00FB683A691A6200BF1C37BD4680BC704701
:10591C00002C0140000400400008004080B487B017
:10592C0000AFF860B9607A60FB681B6A7B61FB684A
:10593C001B6A23F00102FB681A62FB689B693B61DE
:10594C003B6923F0F0033B617B681B013A6913430D
:10595C003B617B6923F00A037B617A69BB68134363
:10596C007B61FB683A699A61FB687A691A6200BFCD
:10597C001C37BD4680BC704780B487B000AFF86060
:10598C00B9607A603B60FB681B6A23F01002FB680D
:10599C001A62FB689B697B61FB681B6A3B617B69D4
:1059AC0023F440737B617B681B027A6913437B6130
:1059BC007B6923F470437B613B681B039BB27A6960
:1059CC0013437B613B6923F0A0033B61BB681B0164
:1059DC0003F0A0033A6913433B61FB687A699A614F
:1059EC00FB683A691A6200BF1C37BD4680BC704721
:1059FC0080B487B000AFF860B9607A60FB681B6A4E
:105A0C0023F01002FB681A62FB689B697B61FB68E0
:105A1C001B6A3B617B6923F470437B617B681B03CE
:105A2C007A6913437B613B6923F0A0033B61BB683C
:105A3C001B013A6913433B61FB687A699A61FB6805
:105A4C003A691A6200BF1C37BD4680BC704780B4EF
:105A5C0087B000AFF860B9607A603B60FB681B6A86
:105A6C0023F48072FB681A62FB68DB697B61FB685C
:105A7C001B6A3B617B6923F003037B617A697B685A
:105A8C0013437B617B6923F0F0037B613B681B0153
:105A9C00DBB27A6913437B613B6923F400733B618E
:105AAC00BB681B0203F400733A6913433B61FB6848
:105ABC007A69DA61FB683A691A6200BF1C37BD4625
:105ACC0080BC704780B487B000AFF860B9607A6072
